{
  "contractName": "MemeKing",
  "abi": [
    {
      "constant": true,
      "inputs": [],
      "name": "currentPrice",
      "outputs": [
        {
          "name": "",
          "type": "uint256"
        }
      ],
      "payable": false,
      "stateMutability": "view",
      "type": "function",
      "signature": "0x9d1b464a"
    },
    {
      "constant": true,
      "inputs": [],
      "name": "currentKing",
      "outputs": [
        {
          "name": "",
          "type": "address"
        }
      ],
      "payable": false,
      "stateMutability": "view",
      "type": "function",
      "signature": "0xf5b45714"
    },
    {
      "constant": false,
      "inputs": [
        {
          "name": "_hash",
          "type": "string"
        }
      ],
      "name": "kingMe",
      "outputs": [],
      "payable": true,
      "stateMutability": "payable",
      "type": "function",
      "signature": "0x5047d811"
    },
    {
      "constant": false,
      "inputs": [
        {
          "name": "_hash",
          "type": "string"
        }
      ],
      "name": "setMemeHash",
      "outputs": [],
      "payable": false,
      "stateMutability": "nonpayable",
      "type": "function",
      "signature": "0xb1614610"
    },
    {
      "constant": true,
      "inputs": [],
      "name": "getMemeHash",
      "outputs": [
        {
          "name": "",
          "type": "string"
        }
      ],
      "payable": false,
      "stateMutability": "view",
      "type": "function",
      "signature": "0x60ac40f0"
    }
  ],
  "bytecode": "0x60806040526000600155606060405190810160405280602e81526020017f516d523176696162706b52577062626b6a5a486e63684e686a35346f58536a7681526020017f4d5936694b3142536631586b43410000000000000000000000000000000000008152506002908051906020019061007b92919061008e565b5034801561008857600080fd5b50610133565b828054600181600116156101000203166002900490600052602060002090601f016020900481019282601f106100cf57805160ff19168380011785556100fd565b828001600101855582156100fd579182015b828111156100fc5782518255916020019190600101906100e1565b5b50905061010a919061010e565b5090565b61013091905b8082111561012c576000816000905550600101610114565b5090565b90565b6105a5806101426000396000f3fe60806040526004361061006d576000357c0100000000000000000000000000000000000000000000000000000000900463ffffffff1680635047d8111461007257806360ac40f01461012d5780639d1b464a146101bd578063b1614610146101e8578063f5b45714146102b0575b600080fd5b61012b6004803603602081101561008857600080fd5b81019080803590602001906401000000008111156100a557600080fd5b8201836020820111156100b757600080fd5b803590602001918460018302840111640100000000831117156100d957600080fd5b91908080601f016020809104026020016040519081016040528093929190818152602001838380828437600081840152601f19601f820116905080830192505050505050509192919290505050610307565b005b34801561013957600080fd5b506101426103ed565b6040518080602001828103825283818151815260200191508051906020019080838360005b83811015610182578082015181840152602081019050610167565b50505050905090810190601f1680156101af5780820380516001836020036101000a031916815260200191505b509250505060405180910390f35b3480156101c957600080fd5b506101d261048f565b6040518082815260200191505060405180910390f35b3480156101f457600080fd5b506102ae6004803603602081101561020b57600080fd5b810190808035906020019064010000000081111561022857600080fd5b82018360208201111561023a57600080fd5b8035906020019184600183028401116401000000008311171561025c57600080fd5b91908080601f016020809104026020016040519081016040528093929190818152602001838380828437600081840152601f19601f820116905080830192505050505050509192919290505050610495565b005b3480156102bc57600080fd5b506102c56104af565b604051808273ffffffffffffffffffffffffffffffffffffffff1673ffffffffffffffffffffffffffffffffffffffff16815260200191505060405180910390f35b6000600a600b6001540281151561031a57fe5b049050803411151561032b57600080fd5b60008060009054906101000a900473ffffffffffffffffffffffffffffffffffffffff169050336000806101000a81548173ffffffffffffffffffffffffffffffffffffffff021916908373ffffffffffffffffffffffffffffffffffffffff160217905550346001819055508073ffffffffffffffffffffffffffffffffffffffff166108fc349081150290604051600060405180830381858888f193505050501580156103de573d6000803e3d6000fd5b506103e883610495565b505050565b606060028054600181600116156101000203166002900480601f0160208091040260200160405190810160405280929190818152602001828054600181600116156101000203166002900480156104855780601f1061045a57610100808354040283529160200191610485565b820191906000526020600020905b81548152906001019060200180831161046857829003601f168201915b5050505050905090565b60015481565b80600290805190602001906104ab9291906104d4565b5050565b6000809054906101000a900473ffffffffffffffffffffffffffffffffffffffff1681565b828054600181600116156101000203166002900490600052602060002090601f016020900481019282601f1061051557805160ff1916838001178555610543565b82800160010185558215610543579182015b82811115610542578251825591602001919060010190610527565b5b5090506105509190610554565b5090565b61057691905b8082111561057257600081600090555060010161055a565b5090565b9056fea165627a7a72305820e5a742de2e9077d16bdc9b8a92f7b8c634e95e5f3f4a5473637e5a9a156a3b0c0029",
  "source": "pragma solidity 0.5.0;\n\ncontract MemeKing {\n    address payable public currentKing;\n    uint public currentPrice = 0;\n    string memeHash = \"QmR1viabpkRWpbbkjZHnchNhj54oXSjvMY6iK1BSf1XkCA\";\n\n    function kingMe(string memory _hash) payable public {\n        // new price must be 10% greater than current\n        uint minimumPrice = currentPrice * 11/10;\n        require(msg.value > minimumPrice);\n        // document new king\n        address payable previousKing = currentKing;\n        currentKing = msg.sender;\n        currentPrice = msg.value;\n        // payout previous king\n        previousKing.transfer(msg.value);\n\n        // set new memeHash\n        setMemeHash(_hash);\n    }\n\n    function setMemeHash(string memory _hash) public {\n        memeHash = _hash;\n    }\n\n    function getMemeHash() public view returns(string memory) {\n        return memeHash;\n    }\n}",
  "sourcePath": "/media/student/projects1/memeking/contracts/MemeKing.sol",
  "compiler": {
    "name": "solc",
    "version": "0.5.0+commit.1d4f565a.Emscripten.clang"
  },
  "schemaVersion": "3.0.1",
  "updatedAt": "2019-09-17T14:56:26.381Z",
  "devdoc": {
    "methods": {}
  },
  "userdoc": {
    "methods": {}
  }
}